{"contracts/rollback-oracle/RBTOracle.sol":{"RBTOracle":{"abi":[{"inputs":[],"stateMutability":"nonpayable","type":"constructor"},{"anonymous":false,"inputs":[{"indexed":true,"internalType":"address","name":"addr","type":"address"}],"name":"RBTDeployed","type":"event"},{"anonymous":false,"inputs":[{"indexed":true,"internalType":"address","name":"addr","type":"address"}],"name":"SahayakRegistered","type":"event"},{"anonymous":false,"inputs":[{"indexed":true,"internalType":"address","name":"addr","type":"address"}],"name":"SahayakUnregistered","type":"event"},{"inputs":[{"internalType":"string","name":"name_","type":"string"},{"internalType":"string","name":"symbol_","type":"string"},{"internalType":"uint8","name":"decimals_","type":"uint8"}],"name":"deployRBT","outputs":[],"stateMutability":"nonpayable","type":"function"},{"inputs":[],"name":"getReversePeriod","outputs":[{"internalType":"uint256","name":"","type":"uint256"}],"stateMutability":"pure","type":"function"},{"inputs":[{"internalType":"address","name":"","type":"address"}],"name":"isRBTtoken","outputs":[{"internalType":"bool","name":"","type":"bool"}],"stateMutability":"view","type":"function"},{"inputs":[{"internalType":"uint256[2]","name":"_pA","type":"uint256[2]"},{"internalType":"uint256[2][2]","name":"_pB","type":"uint256[2][2]"},{"internalType":"uint256[2]","name":"_pC","type":"uint256[2]"},{"internalType":"uint256[1]","name":"_pubSignals","type":"uint256[1]"}],"name":"verifyProof","outputs":[{"internalType":"bool","name":"","type":"bool"}],"stateMutability":"view","type":"function"},{"inputs":[{"internalType":"uint256[2]","name":"a","type":"uint256[2]"},{"internalType":"uint256[2][2]","name":"b","type":"uint256[2][2]"},{"internalType":"uint256[2]","name":"c","type":"uint256[2]"},{"internalType":"uint256[1]","name":"input","type":"uint256[1]"}],"name":"verifySahayak","outputs":[{"internalType":"bool","name":"","type":"bool"}],"stateMutability":"view","type":"function"}],"evm":{"bytecode":{"linkReferences":{},"object":"608060405234801561001057600080fd5b50610ffe806100206000396000f3fe608060405234801561001057600080fd5b50600436106100575760003560e01c80631f441cf51461005c57806343753b4d1461008c578063b02a67c3146100bc578063b61db181146100da578063dedae14d1461010a575b600080fd5b6100766004803603810190610071919061095f565b610126565b60405161008391906109e3565b60405180910390f35b6100a660048036038101906100a19190610a64565b6101d4565b6040516100b391906109e3565b60405180910390f35b6100c461063d565b6040516100d19190610adc565b60405180910390f35b6100f460048036038101906100ef9190610b55565b610647565b60405161010191906109e3565b60405180910390f35b610124600480360381019061011f9190610c70565b610667565b005b6000600160009054906101000a900473ffffffffffffffffffffffffffffffffffffffff1673ffffffffffffffffffffffffffffffffffffffff166343753b4d868686866040518563ffffffff1660e01b81526004016101899493929190610f28565b602060405180830381865afa1580156101a6573d6000803e3d6000fd5b505050506040513d601f19601f820116820180604052508101906101ca9190610f9b565b9050949350505050565b6000610601565b7f30644e72e131a029b85045b68181585d2833e84879b9709143e1f593f0000001811061020c576000805260206000f35b50565b600060405183815284602082015285604082015260408160608360076107d05a03fa915081610242576000805260206000f35b825160408201526020830151606082015260408360808360066107d05a03fa915081610272576000805260206000f35b505050505050565b600060808601600087017f2191819cc4ae9bd36a168d662673fbc16b5df2b17e6afc0ededb3af07e18ed3b81527f0df631b18b4d1f10f306238969a39436d0168f4422ee8cbf646d8f844b571ccd602082015261031d60008801357f1ce4b14eaa06dca20a5d04d86cc58cb6ede0b5fa36d040b0dc15ef8503d425417f0b393b6ae2613aac2ae8932cc65b49ffe9e97469ee4f120d4bd0140d1c1a34de8461020f565b833582527f30644e72e131a029b85045b68181585d97816a916871ca8d3c208c16d87cfd4760208501357f30644e72e131a029b85045b68181585d97816a916871ca8d3c208c16d87cfd4703066020830152843560408301526020850135606083015260408501356080830152606085013560a08301527f2d4d9aa7e302d9df41749d5507949d05dbea33fbb16c643b22f599a2be6df2e260c08301527f14bedd503c37ceb061d8ec60209fe345ce89830a19230301f076caff004d192660e08301527f0967032fcbf776d1afc985f88877f182d38480a653f2decaa9794cbc3bf3060c6101008301527f0e187847ad4c798374d0d6732bf501847dd68bc0e071241e0213bc7fc13db7ab6101208301527f304cfbd1e08a704a99f5e847d93f8c3caafddec46b7a0d379da69a4d112346a76101408301527f1739c1b1a457a8c7313123d24d2f9192f896b7c63eea05a9d57f06547ad0cec8610160830152600088015161018083015260206000018801516101a08301527f198e9393920d483a7260bfb731fb5d25f1aa493335a9e71297e485b7aef312c26101c08301527f1800deef121f1e76426a00665e5c4479674322d4f75edadd46debd5cd992f6ed6101e08301527f090689d0585ff075ec9e99ad690c3395bc4b313370b38ef355acdadcd122975b6102008301527f12c85ea5db8c6deb4aab71808dcb408fe3d1e7690c43d37b4ce6cc0166fa7daa610220830152853561024083015260208601356102608301527f198e9393920d483a7260bfb731fb5d25f1aa493335a9e71297e485b7aef312c26102808301527f1800deef121f1e76426a00665e5c4479674322d4f75edadd46debd5cd992f6ed6102a08301527f090689d0585ff075ec9e99ad690c3395bc4b313370b38ef355acdadcd122975b6102c08301527f12c85ea5db8c6deb4aab71808dcb408fe3d1e7690c43d37b4ce6cc0166fa7daa6102e08301526020826103008460086107d05a03fa82518116935050505095945050505050565b604051610380810160405261061960008401356101db565b61062660208401356101db565b610633818486888a61027a565b8060005260206000f35b6000610a8c905090565b60006020528060005260406000206000915054906101000a900460ff1681565b505050565b6000604051905090565b600080fd5b600080fd5b600080fd5b6000601f19601f8301169050919050565b7f4e487b7100000000000000000000000000000000000000000000000000000000600052604160045260246000fd5b6106ce82610685565b810181811067ffffffffffffffff821117156106ed576106ec610696565b5b80604052505050565b600061070061066c565b905061070c82826106c5565b919050565b600067ffffffffffffffff82111561072c5761072b610696565b5b602082029050919050565b600080fd5b6000819050919050565b61074f8161073c565b811461075a57600080fd5b50565b60008135905061076c81610746565b92915050565b600061078561078084610711565b6106f6565b9050806020840283018581111561079f5761079e610737565b5b835b818110156107c857806107b4888261075d565b8452602084019350506020810190506107a1565b5050509392505050565b600082601f8301126107e7576107e6610680565b5b60026107f4848285610772565b91505092915050565b600067ffffffffffffffff82111561081857610817610696565b5b602082029050919050565b6000610836610831846107fd565b6106f6565b905080604084028301858111156108505761084f610737565b5b835b81811015610879578061086588826107d2565b845260208401935050604081019050610852565b5050509392505050565b600082601f83011261089857610897610680565b5b60026108a5848285610823565b91505092915050565b600067ffffffffffffffff8211156108c9576108c8610696565b5b602082029050919050565b60006108e76108e2846108ae565b6106f6565b9050806020840283018581111561090157610900610737565b5b835b8181101561092a5780610916888261075d565b845260208401935050602081019050610903565b5050509392505050565b600082601f83011261094957610948610680565b5b60016109568482856108d4565b91505092915050565b600080600080610120858703121561097a57610979610676565b5b6000610988878288016107d2565b945050604061099987828801610883565b93505060c06109aa878288016107d2565b9250506101006109bc87828801610934565b91505092959194509250565b60008115159050919050565b6109dd816109c8565b82525050565b60006020820190506109f860008301846109d4565b92915050565b600081905082602060020282011115610a1a57610a19610737565b5b92915050565b600081905082604060020282011115610a3c57610a3b610737565b5b92915050565b600081905082602060010282011115610a5e57610a5d610737565b5b92915050565b6000806000806101208587031215610a7f57610a7e610676565b5b6000610a8d878288016109fe565b9450506040610a9e87828801610a20565b93505060c0610aaf878288016109fe565b925050610100610ac187828801610a42565b91505092959194509250565b610ad68161073c565b82525050565b6000602082019050610af16000830184610acd565b92915050565b600073ffffffffffffffffffffffffffffffffffffffff82169050919050565b6000610b2282610af7565b9050919050565b610b3281610b17565b8114610b3d57600080fd5b50565b600081359050610b4f81610b29565b92915050565b600060208284031215610b6b57610b6a610676565b5b6000610b7984828501610b40565b91505092915050565b600080fd5b600067ffffffffffffffff821115610ba257610ba1610696565b5b610bab82610685565b9050602081019050919050565b82818337600083830152505050565b6000610bda610bd584610b87565b6106f6565b905082815260208101848484011115610bf657610bf5610b82565b5b610c01848285610bb8565b509392505050565b600082601f830112610c1e57610c1d610680565b5b8135610c2e848260208601610bc7565b91505092915050565b600060ff82169050919050565b610c4d81610c37565b8114610c5857600080fd5b50565b600081359050610c6a81610c44565b92915050565b600080600060608486031215610c8957610c88610676565b5b600084013567ffffffffffffffff811115610ca757610ca661067b565b5b610cb386828701610c09565b935050602084013567ffffffffffffffff811115610cd457610cd361067b565b5b610ce086828701610c09565b9250506040610cf186828701610c5b565b9150509250925092565b600060029050919050565b600081905092915050565b6000819050919050565b610d248161073c565b82525050565b6000610d368383610d1b565b60208301905092915050565b6000602082019050919050565b610d5881610cfb565b610d628184610d06565b9250610d6d82610d11565b8060005b83811015610d9e578151610d858782610d2a565b9650610d9083610d42565b925050600181019050610d71565b505050505050565b600060029050919050565b600081905092915050565b6000819050919050565b600081905092915050565b610dda81610cfb565b610de48184610dc6565b9250610def82610d11565b8060005b83811015610e20578151610e078782610d2a565b9650610e1283610d42565b925050600181019050610df3565b505050505050565b6000610e348383610dd1565b60408301905092915050565b6000602082019050919050565b610e5681610da6565b610e608184610db1565b9250610e6b82610dbc565b8060005b83811015610e9c578151610e838782610e28565b9650610e8e83610e40565b925050600181019050610e6f565b505050505050565b600060019050919050565b600081905092915050565b6000819050919050565b6000602082019050919050565b610eda81610ea4565b610ee48184610eaf565b9250610eef82610eba565b8060005b83811015610f20578151610f078782610d2a565b9650610f1283610ec4565b925050600181019050610ef3565b505050505050565b600061012082019050610f3e6000830187610d4f565b610f4b6040830186610e4d565b610f5860c0830185610d4f565b610f66610100830184610ed1565b95945050505050565b610f78816109c8565b8114610f8357600080fd5b50565b600081519050610f9581610f6f565b92915050565b600060208284031215610fb157610fb0610676565b5b6000610fbf84828501610f86565b9150509291505056fea26469706673582212203f8a92fed2d0cd90e5e00a977e4cdcec3e8a05405d284e0b885d1dba6730a33964736f6c63430008180033","opcodes":"PUSH1 0x80 PUSH1 0x40 MSTORE CALLVALUE DUP1 ISZERO PUSH2 0x10 JUMPI PUSH1 0x0 DUP1 REVERT JUMPDEST POP PUSH2 0xFFE DUP1 PUSH2 0x20 PUSH1 0x0 CODECOPY PUSH1 0x0 RETURN INVALID PUSH1 0x80 PUSH1 0x40 MSTORE CALLVALUE DUP1 ISZERO PUSH2 0x10 JUMPI PUSH1 0x0 DUP1 REVERT JUMPDEST POP PUSH1 0x4 CALLDATASIZE LT PUSH2 0x57 JUMPI PUSH1 0x0 CALLDATALOAD PUSH1 0xE0 SHR DUP1 PUSH4 0x1F441CF5 EQ PUSH2 0x5C JUMPI DUP1 PUSH4 0x43753B4D EQ PUSH2 0x8C JUMPI DUP1 PUSH4 0xB02A67C3 EQ PUSH2 0xBC JUMPI DUP1 PUSH4 0xB61DB181 EQ PUSH2 0xDA JUMPI DUP1 PUSH4 0xDEDAE14D EQ PUSH2 0x10A JUMPI JUMPDEST PUSH1 0x0 DUP1 REVERT JUMPDEST PUSH2 0x76 PUSH1 0x4 DUP1 CALLDATASIZE SUB DUP2 ADD SWAP1 PUSH2 0x71 SWAP2 SWAP1 PUSH2 0x95F JUMP JUMPDEST PUSH2 0x126 JUMP JUMPDEST PUSH1 0x40 MLOAD PUSH2 0x83 SWAP2 SWAP1 PUSH2 0x9E3 JUMP JUMPDEST PUSH1 0x40 MLOAD DUP1 SWAP2 SUB SWAP1 RETURN JUMPDEST PUSH2 0xA6 PUSH1 0x4 DUP1 CALLDATASIZE SUB DUP2 ADD SWAP1 PUSH2 0xA1 SWAP2 SWAP1 PUSH2 0xA64 JUMP JUMPDEST PUSH2 0x1D4 JUMP JUMPDEST PUSH1 0x40 MLOAD PUSH2 0xB3 SWAP2 SWAP1 PUSH2 0x9E3 JUMP JUMPDEST PUSH1 0x40 MLOAD DUP1 SWAP2 SUB SWAP1 RETURN JUMPDEST PUSH2 0xC4 PUSH2 0x63D JUMP JUMPDEST PUSH1 0x40 MLOAD PUSH2 0xD1 SWAP2 SWAP1 PUSH2 0xADC JUMP JUMPDEST PUSH1 0x40 MLOAD DUP1 SWAP2 SUB SWAP1 RETURN JUMPDEST PUSH2 0xF4 PUSH1 0x4 DUP1 CALLDATASIZE SUB DUP2 ADD SWAP1 PUSH2 0xEF SWAP2 SWAP1 PUSH2 0xB55 JUMP JUMPDEST PUSH2 0x647 JUMP JUMPDEST PUSH1 0x40 MLOAD PUSH2 0x101 SWAP2 SWAP1 PUSH2 0x9E3 JUMP JUMPDEST PUSH1 0x40 MLOAD DUP1 SWAP2 SUB SWAP1 RETURN JUMPDEST PUSH2 0x124 PUSH1 0x4 DUP1 CALLDATASIZE SUB DUP2 ADD SWAP1 PUSH2 0x11F SWAP2 SWAP1 PUSH2 0xC70 JUMP JUMPDEST PUSH2 0x667 JUMP JUMPDEST STOP JUMPDEST PUSH1 0x0 PUSH1 0x1 PUSH1 0x0 SWAP1 SLOAD SWAP1 PUSH2 0x100 EXP SWAP1 DIV PUSH20 0xFFFFFFFFFFFFFFFFFFFFFFFFFFFFFFFFFFFFFFFF AND PUSH20 0xFFFFFFFFFFFFFFFFFFFFFFFFFFFFFFFFFFFFFFFF AND PUSH4 0x43753B4D DUP7 DUP7 DUP7 DUP7 PUSH1 0x40 MLOAD DUP6 PUSH4 0xFFFFFFFF AND PUSH1 0xE0 SHL DUP2 MSTORE PUSH1 0x4 ADD PUSH2 0x189 SWAP5 SWAP4 SWAP3 SWAP2 SWAP1 PUSH2 0xF28 JUMP JUMPDEST PUSH1 0x20 PUSH1 0x40 MLOAD DUP1 DUP4 SUB DUP2 DUP7 GAS STATICCALL ISZERO DUP1 ISZERO PUSH2 0x1A6 JUMPI RETURNDATASIZE PUSH1 0x0 DUP1 RETURNDATACOPY RETURNDATASIZE PUSH1 0x0 REVERT JUMPDEST POP POP POP POP PUSH1 0x40 MLOAD RETURNDATASIZE PUSH1 0x1F NOT PUSH1 0x1F DUP3 ADD AND DUP3 ADD DUP1 PUSH1 0x40 MSTORE POP DUP2 ADD SWAP1 PUSH2 0x1CA SWAP2 SWAP1 PUSH2 0xF9B JUMP JUMPDEST SWAP1 POP SWAP5 SWAP4 POP POP POP POP JUMP JUMPDEST PUSH1 0x0 PUSH2 0x601 JUMP JUMPDEST PUSH32 0x30644E72E131A029B85045B68181585D2833E84879B9709143E1F593F0000001 DUP2 LT PUSH2 0x20C JUMPI PUSH1 0x0 DUP1 MSTORE PUSH1 0x20 PUSH1 0x0 RETURN JUMPDEST POP JUMP JUMPDEST PUSH1 0x0 PUSH1 0x40 MLOAD DUP4 DUP2 MSTORE DUP5 PUSH1 0x20 DUP3 ADD MSTORE DUP6 PUSH1 0x40 DUP3 ADD MSTORE PUSH1 0x40 DUP2 PUSH1 0x60 DUP4 PUSH1 0x7 PUSH2 0x7D0 GAS SUB STATICCALL SWAP2 POP DUP2 PUSH2 0x242 JUMPI PUSH1 0x0 DUP1 MSTORE PUSH1 0x20 PUSH1 0x0 RETURN JUMPDEST DUP3 MLOAD PUSH1 0x40 DUP3 ADD MSTORE PUSH1 0x20 DUP4 ADD MLOAD PUSH1 0x60 DUP3 ADD MSTORE PUSH1 0x40 DUP4 PUSH1 0x80 DUP4 PUSH1 0x6 PUSH2 0x7D0 GAS SUB STATICCALL SWAP2 POP DUP2 PUSH2 0x272 JUMPI PUSH1 0x0 DUP1 MSTORE PUSH1 0x20 PUSH1 0x0 RETURN JUMPDEST POP POP POP POP POP POP JUMP JUMPDEST PUSH1 0x0 PUSH1 0x80 DUP7 ADD PUSH1 0x0 DUP8 ADD PUSH32 0x2191819CC4AE9BD36A168D662673FBC16B5DF2B17E6AFC0EDEDB3AF07E18ED3B DUP2 MSTORE PUSH32 0xDF631B18B4D1F10F306238969A39436D0168F4422EE8CBF646D8F844B571CCD PUSH1 0x20 DUP3 ADD MSTORE PUSH2 0x31D PUSH1 0x0 DUP9 ADD CALLDATALOAD PUSH32 0x1CE4B14EAA06DCA20A5D04D86CC58CB6EDE0B5FA36D040B0DC15EF8503D42541 PUSH32 0xB393B6AE2613AAC2AE8932CC65B49FFE9E97469EE4F120D4BD0140D1C1A34DE DUP5 PUSH2 0x20F JUMP JUMPDEST DUP4 CALLDATALOAD DUP3 MSTORE PUSH32 0x30644E72E131A029B85045B68181585D97816A916871CA8D3C208C16D87CFD47 PUSH1 0x20 DUP6 ADD CALLDATALOAD PUSH32 0x30644E72E131A029B85045B68181585D97816A916871CA8D3C208C16D87CFD47 SUB MOD PUSH1 0x20 DUP4 ADD MSTORE DUP5 CALLDATALOAD PUSH1 0x40 DUP4 ADD MSTORE PUSH1 0x20 DUP6 ADD CALLDATALOAD PUSH1 0x60 DUP4 ADD MSTORE PUSH1 0x40 DUP6 ADD CALLDATALOAD PUSH1 0x80 DUP4 ADD MSTORE PUSH1 0x60 DUP6 ADD CALLDATALOAD PUSH1 0xA0 DUP4 ADD MSTORE PUSH32 0x2D4D9AA7E302D9DF41749D5507949D05DBEA33FBB16C643B22F599A2BE6DF2E2 PUSH1 0xC0 DUP4 ADD MSTORE PUSH32 0x14BEDD503C37CEB061D8EC60209FE345CE89830A19230301F076CAFF004D1926 PUSH1 0xE0 DUP4 ADD MSTORE PUSH32 0x967032FCBF776D1AFC985F88877F182D38480A653F2DECAA9794CBC3BF3060C PUSH2 0x100 DUP4 ADD MSTORE PUSH32 0xE187847AD4C798374D0D6732BF501847DD68BC0E071241E0213BC7FC13DB7AB PUSH2 0x120 DUP4 ADD MSTORE PUSH32 0x304CFBD1E08A704A99F5E847D93F8C3CAAFDDEC46B7A0D379DA69A4D112346A7 PUSH2 0x140 DUP4 ADD MSTORE PUSH32 0x1739C1B1A457A8C7313123D24D2F9192F896B7C63EEA05A9D57F06547AD0CEC8 PUSH2 0x160 DUP4 ADD MSTORE PUSH1 0x0 DUP9 ADD MLOAD PUSH2 0x180 DUP4 ADD MSTORE PUSH1 0x20 PUSH1 0x0 ADD DUP9 ADD MLOAD PUSH2 0x1A0 DUP4 ADD MSTORE PUSH32 0x198E9393920D483A7260BFB731FB5D25F1AA493335A9E71297E485B7AEF312C2 PUSH2 0x1C0 DUP4 ADD MSTORE PUSH32 0x1800DEEF121F1E76426A00665E5C4479674322D4F75EDADD46DEBD5CD992F6ED PUSH2 0x1E0 DUP4 ADD MSTORE PUSH32 0x90689D0585FF075EC9E99AD690C3395BC4B313370B38EF355ACDADCD122975B PUSH2 0x200 DUP4 ADD MSTORE PUSH32 0x12C85EA5DB8C6DEB4AAB71808DCB408FE3D1E7690C43D37B4CE6CC0166FA7DAA PUSH2 0x220 DUP4 ADD MSTORE DUP6 CALLDATALOAD PUSH2 0x240 DUP4 ADD MSTORE PUSH1 0x20 DUP7 ADD CALLDATALOAD PUSH2 0x260 DUP4 ADD MSTORE PUSH32 0x198E9393920D483A7260BFB731FB5D25F1AA493335A9E71297E485B7AEF312C2 PUSH2 0x280 DUP4 ADD MSTORE PUSH32 0x1800DEEF121F1E76426A00665E5C4479674322D4F75EDADD46DEBD5CD992F6ED PUSH2 0x2A0 DUP4 ADD MSTORE PUSH32 0x90689D0585FF075EC9E99AD690C3395BC4B313370B38EF355ACDADCD122975B PUSH2 0x2C0 DUP4 ADD MSTORE PUSH32 0x12C85EA5DB8C6DEB4AAB71808DCB408FE3D1E7690C43D37B4CE6CC0166FA7DAA PUSH2 0x2E0 DUP4 ADD MSTORE PUSH1 0x20 DUP3 PUSH2 0x300 DUP5 PUSH1 0x8 PUSH2 0x7D0 GAS SUB STATICCALL DUP3 MLOAD DUP2 AND SWAP4 POP POP POP POP SWAP6 SWAP5 POP POP POP POP POP JUMP JUMPDEST PUSH1 0x40 MLOAD PUSH2 0x380 DUP2 ADD PUSH1 0x40 MSTORE PUSH2 0x619 PUSH1 0x0 DUP5 ADD CALLDATALOAD PUSH2 0x1DB JUMP JUMPDEST PUSH2 0x626 PUSH1 0x20 DUP5 ADD CALLDATALOAD PUSH2 0x1DB JUMP JUMPDEST PUSH2 0x633 DUP2 DUP5 DUP7 DUP9 DUP11 PUSH2 0x27A JUMP JUMPDEST DUP1 PUSH1 0x0 MSTORE PUSH1 0x20 PUSH1 0x0 RETURN JUMPDEST PUSH1 0x0 PUSH2 0xA8C SWAP1 POP SWAP1 JUMP JUMPDEST PUSH1 0x0 PUSH1 0x20 MSTORE DUP1 PUSH1 0x0 MSTORE PUSH1 0x40 PUSH1 0x0 KECCAK256 PUSH1 0x0 SWAP2 POP SLOAD SWAP1 PUSH2 0x100 EXP SWAP1 DIV PUSH1 0xFF AND DUP2 JUMP JUMPDEST POP POP POP JUMP JUMPDEST PUSH1 0x0 PUSH1 0x40 MLOAD SWAP1 POP SWAP1 JUMP JUMPDEST PUSH1 0x0 DUP1 REVERT JUMPDEST PUSH1 0x0 DUP1 REVERT JUMPDEST PUSH1 0x0 DUP1 REVERT JUMPDEST PUSH1 0x0 PUSH1 0x1F NOT PUSH1 0x1F DUP4 ADD AND SWAP1 POP SWAP2 SWAP1 POP JUMP JUMPDEST PUSH32 0x4E487B7100000000000000000000000000000000000000000000000000000000 PUSH1 0x0 MSTORE PUSH1 0x41 PUSH1 0x4 MSTORE PUSH1 0x24 PUSH1 0x0 REVERT JUMPDEST PUSH2 0x6CE DUP3 PUSH2 0x685 JUMP JUMPDEST DUP2 ADD DUP2 DUP2 LT PUSH8 0xFFFFFFFFFFFFFFFF DUP3 GT OR ISZERO PUSH2 0x6ED JUMPI PUSH2 0x6EC PUSH2 0x696 JUMP JUMPDEST JUMPDEST DUP1 PUSH1 0x40 MSTORE POP POP POP JUMP JUMPDEST PUSH1 0x0 PUSH2 0x700 PUSH2 0x66C JUMP JUMPDEST SWAP1 POP PUSH2 0x70C DUP3 DUP3 PUSH2 0x6C5 JUMP JUMPDEST SWAP2 SWAP1 POP JUMP JUMPDEST PUSH1 0x0 PUSH8 0xFFFFFFFFFFFFFFFF DUP3 GT ISZERO PUSH2 0x72C JUMPI PUSH2 0x72B PUSH2 0x696 JUMP JUMPDEST JUMPDEST PUSH1 0x20 DUP3 MUL SWAP1 POP SWAP2 SWAP1 POP JUMP JUMPDEST PUSH1 0x0 DUP1 REVERT JUMPDEST PUSH1 0x0 DUP2 SWAP1 POP SWAP2 SWAP1 POP JUMP JUMPDEST PUSH2 0x74F DUP2 PUSH2 0x73C JUMP JUMPDEST DUP2 EQ PUSH2 0x75A JUMPI PUSH1 0x0 DUP1 REVERT JUMPDEST POP JUMP JUMPDEST PUSH1 0x0 DUP2 CALLDATALOAD SWAP1 POP PUSH2 0x76C DUP2 PUSH2 0x746 JUMP JUMPDEST SWAP3 SWAP2 POP POP JUMP JUMPDEST PUSH1 0x0 PUSH2 0x785 PUSH2 0x780 DUP5 PUSH2 0x711 JUMP JUMPDEST PUSH2 0x6F6 JUMP JUMPDEST SWAP1 POP DUP1 PUSH1 0x20 DUP5 MUL DUP4 ADD DUP6 DUP2 GT ISZERO PUSH2 0x79F JUMPI PUSH2 0x79E PUSH2 0x737 JUMP JUMPDEST JUMPDEST DUP4 JUMPDEST DUP2 DUP2 LT ISZERO PUSH2 0x7C8 JUMPI DUP1 PUSH2 0x7B4 DUP9 DUP3 PUSH2 0x75D JUMP JUMPDEST DUP5 MSTORE PUSH1 0x20 DUP5 ADD SWAP4 POP POP PUSH1 0x20 DUP2 ADD SWAP1 POP PUSH2 0x7A1 JUMP JUMPDEST POP POP POP SWAP4 SWAP3 POP POP POP JUMP JUMPDEST PUSH1 0x0 DUP3 PUSH1 0x1F DUP4 ADD SLT PUSH2 0x7E7 JUMPI PUSH2 0x7E6 PUSH2 0x680 JUMP JUMPDEST JUMPDEST PUSH1 0x2 PUSH2 0x7F4 DUP5 DUP3 DUP6 PUSH2 0x772 JUMP JUMPDEST SWAP2 POP POP SWAP3 SWAP2 POP POP JUMP JUMPDEST PUSH1 0x0 PUSH8 0xFFFFFFFFFFFFFFFF DUP3 GT ISZERO PUSH2 0x818 JUMPI PUSH2 0x817 PUSH2 0x696 JUMP JUMPDEST JUMPDEST PUSH1 0x20 DUP3 MUL SWAP1 POP SWAP2 SWAP1 POP JUMP JUMPDEST PUSH1 0x0 PUSH2 0x836 PUSH2 0x831 DUP5 PUSH2 0x7FD JUMP JUMPDEST PUSH2 0x6F6 JUMP JUMPDEST SWAP1 POP DUP1 PUSH1 0x40 DUP5 MUL DUP4 ADD DUP6 DUP2 GT ISZERO PUSH2 0x850 JUMPI PUSH2 0x84F PUSH2 0x737 JUMP JUMPDEST JUMPDEST DUP4 JUMPDEST DUP2 DUP2 LT ISZERO PUSH2 0x879 JUMPI DUP1 PUSH2 0x865 DUP9 DUP3 PUSH2 0x7D2 JUMP JUMPDEST DUP5 MSTORE PUSH1 0x20 DUP5 ADD SWAP4 POP POP PUSH1 0x40 DUP2 ADD SWAP1 POP PUSH2 0x852 JUMP JUMPDEST POP POP POP SWAP4 SWAP3 POP POP POP JUMP JUMPDEST PUSH1 0x0 DUP3 PUSH1 0x1F DUP4 ADD SLT PUSH2 0x898 JUMPI PUSH2 0x897 PUSH2 0x680 JUMP JUMPDEST JUMPDEST PUSH1 0x2 PUSH2 0x8A5 DUP5 DUP3 DUP6 PUSH2 0x823 JUMP JUMPDEST SWAP2 POP POP SWAP3 SWAP2 POP POP JUMP JUMPDEST PUSH1 0x0 PUSH8 0xFFFFFFFFFFFFFFFF DUP3 GT ISZERO PUSH2 0x8C9 JUMPI PUSH2 0x8C8 PUSH2 0x696 JUMP JUMPDEST JUMPDEST PUSH1 0x20 DUP3 MUL SWAP1 POP SWAP2 SWAP1 POP JUMP JUMPDEST PUSH1 0x0 PUSH2 0x8E7 PUSH2 0x8E2 DUP5 PUSH2 0x8AE JUMP JUMPDEST PUSH2 0x6F6 JUMP JUMPDEST SWAP1 POP DUP1 PUSH1 0x20 DUP5 MUL DUP4 ADD DUP6 DUP2 GT ISZERO PUSH2 0x901 JUMPI PUSH2 0x900 PUSH2 0x737 JUMP JUMPDEST JUMPDEST DUP4 JUMPDEST DUP2 DUP2 LT ISZERO PUSH2 0x92A JUMPI DUP1 PUSH2 0x916 DUP9 DUP3 PUSH2 0x75D JUMP JUMPDEST DUP5 MSTORE PUSH1 0x20 DUP5 ADD SWAP4 POP POP PUSH1 0x20 DUP2 ADD SWAP1 POP PUSH2 0x903 JUMP JUMPDEST POP POP POP SWAP4 SWAP3 POP POP POP JUMP JUMPDEST PUSH1 0x0 DUP3 PUSH1 0x1F DUP4 ADD SLT PUSH2 0x949 JUMPI PUSH2 0x948 PUSH2 0x680 JUMP JUMPDEST JUMPDEST PUSH1 0x1 PUSH2 0x956 DUP5 DUP3 DUP6 PUSH2 0x8D4 JUMP JUMPDEST SWAP2 POP POP SWAP3 SWAP2 POP POP JUMP JUMPDEST PUSH1 0x0 DUP1 PUSH1 0x0 DUP1 PUSH2 0x120 DUP6 DUP8 SUB SLT ISZERO PUSH2 0x97A JUMPI PUSH2 0x979 PUSH2 0x676 JUMP JUMPDEST JUMPDEST PUSH1 0x0 PUSH2 0x988 DUP8 DUP3 DUP9 ADD PUSH2 0x7D2 JUMP JUMPDEST SWAP5 POP POP PUSH1 0x40 PUSH2 0x999 DUP8 DUP3 DUP9 ADD PUSH2 0x883 JUMP JUMPDEST SWAP4 POP POP PUSH1 0xC0 PUSH2 0x9AA DUP8 DUP3 DUP9 ADD PUSH2 0x7D2 JUMP JUMPDEST SWAP3 POP POP PUSH2 0x100 PUSH2 0x9BC DUP8 DUP3 DUP9 ADD PUSH2 0x934 JUMP JUMPDEST SWAP2 POP POP SWAP3 SWAP6 SWAP2 SWAP5 POP SWAP3 POP JUMP JUMPDEST PUSH1 0x0 DUP2 ISZERO ISZERO SWAP1 POP SWAP2 SWAP1 POP JUMP JUMPDEST PUSH2 0x9DD DUP2 PUSH2 0x9C8 JUMP JUMPDEST DUP3 MSTORE POP POP JUMP JUMPDEST PUSH1 0x0 PUSH1 0x20 DUP3 ADD SWAP1 POP PUSH2 0x9F8 PUSH1 0x0 DUP4 ADD DUP5 PUSH2 0x9D4 JUMP JUMPDEST SWAP3 SWAP2 POP POP JUMP JUMPDEST PUSH1 0x0 DUP2 SWAP1 POP DUP3 PUSH1 0x20 PUSH1 0x2 MUL DUP3 ADD GT ISZERO PUSH2 0xA1A JUMPI PUSH2 0xA19 PUSH2 0x737 JUMP JUMPDEST JUMPDEST SWAP3 SWAP2 POP POP JUMP JUMPDEST PUSH1 0x0 DUP2 SWAP1 POP DUP3 PUSH1 0x40 PUSH1 0x2 MUL DUP3 ADD GT ISZERO PUSH2 0xA3C JUMPI PUSH2 0xA3B PUSH2 0x737 JUMP JUMPDEST JUMPDEST SWAP3 SWAP2 POP POP JUMP JUMPDEST PUSH1 0x0 DUP2 SWAP1 POP DUP3 PUSH1 0x20 PUSH1 0x1 MUL DUP3 ADD GT ISZERO PUSH2 0xA5E JUMPI PUSH2 0xA5D PUSH2 0x737 JUMP JUMPDEST JUMPDEST SWAP3 SWAP2 POP POP JUMP JUMPDEST PUSH1 0x0 DUP1 PUSH1 0x0 DUP1 PUSH2 0x120 DUP6 DUP8 SUB SLT ISZERO PUSH2 0xA7F JUMPI PUSH2 0xA7E PUSH2 0x676 JUMP JUMPDEST JUMPDEST PUSH1 0x0 PUSH2 0xA8D DUP8 DUP3 DUP9 ADD PUSH2 0x9FE JUMP JUMPDEST SWAP5 POP POP PUSH1 0x40 PUSH2 0xA9E DUP8 DUP3 DUP9 ADD PUSH2 0xA20 JUMP JUMPDEST SWAP4 POP POP PUSH1 0xC0 PUSH2 0xAAF DUP8 DUP3 DUP9 ADD PUSH2 0x9FE JUMP JUMPDEST SWAP3 POP POP PUSH2 0x100 PUSH2 0xAC1 DUP8 DUP3 DUP9 ADD PUSH2 0xA42 JUMP JUMPDEST SWAP2 POP POP SWAP3 SWAP6 SWAP2 SWAP5 POP SWAP3 POP JUMP JUMPDEST PUSH2 0xAD6 DUP2 PUSH2 0x73C JUMP JUMPDEST DUP3 MSTORE POP POP JUMP JUMPDEST PUSH1 0x0 PUSH1 0x20 DUP3 ADD SWAP1 POP PUSH2 0xAF1 PUSH1 0x0 DUP4 ADD DUP5 PUSH2 0xACD JUMP JUMPDEST SWAP3 SWAP2 POP POP JUMP JUMPDEST PUSH1 0x0 PUSH20 0xFFFFFFFFFFFFFFFFFFFFFFFFFFFFFFFFFFFFFFFF DUP3 AND SWAP1 POP SWAP2 SWAP1 POP JUMP JUMPDEST PUSH1 0x0 PUSH2 0xB22 DUP3 PUSH2 0xAF7 JUMP JUMPDEST SWAP1 POP SWAP2 SWAP1 POP JUMP JUMPDEST PUSH2 0xB32 DUP2 PUSH2 0xB17 JUMP JUMPDEST DUP2 EQ PUSH2 0xB3D JUMPI PUSH1 0x0 DUP1 REVERT JUMPDEST POP JUMP JUMPDEST PUSH1 0x0 DUP2 CALLDATALOAD SWAP1 POP PUSH2 0xB4F DUP2 PUSH2 0xB29 JUMP JUMPDEST SWAP3 SWAP2 POP POP JUMP JUMPDEST PUSH1 0x0 PUSH1 0x20 DUP3 DUP5 SUB SLT ISZERO PUSH2 0xB6B JUMPI PUSH2 0xB6A PUSH2 0x676 JUMP JUMPDEST JUMPDEST PUSH1 0x0 PUSH2 0xB79 DUP5 DUP3 DUP6 ADD PUSH2 0xB40 JUMP JUMPDEST SWAP2 POP POP SWAP3 SWAP2 POP POP JUMP JUMPDEST PUSH1 0x0 DUP1 REVERT JUMPDEST PUSH1 0x0 PUSH8 0xFFFFFFFFFFFFFFFF DUP3 GT ISZERO PUSH2 0xBA2 JUMPI PUSH2 0xBA1 PUSH2 0x696 JUMP JUMPDEST JUMPDEST PUSH2 0xBAB DUP3 PUSH2 0x685 JUMP JUMPDEST SWAP1 POP PUSH1 0x20 DUP2 ADD SWAP1 POP SWAP2 SWAP1 POP JUMP JUMPDEST DUP3 DUP2 DUP4 CALLDATACOPY PUSH1 0x0 DUP4 DUP4 ADD MSTORE POP POP POP JUMP JUMPDEST PUSH1 0x0 PUSH2 0xBDA PUSH2 0xBD5 DUP5 PUSH2 0xB87 JUMP JUMPDEST PUSH2 0x6F6 JUMP JUMPDEST SWAP1 POP DUP3 DUP2 MSTORE PUSH1 0x20 DUP2 ADD DUP5 DUP5 DUP5 ADD GT ISZERO PUSH2 0xBF6 JUMPI PUSH2 0xBF5 PUSH2 0xB82 JUMP JUMPDEST JUMPDEST PUSH2 0xC01 DUP5 DUP3 DUP6 PUSH2 0xBB8 JUMP JUMPDEST POP SWAP4 SWAP3 POP POP POP JUMP JUMPDEST PUSH1 0x0 DUP3 PUSH1 0x1F DUP4 ADD SLT PUSH2 0xC1E JUMPI PUSH2 0xC1D PUSH2 0x680 JUMP JUMPDEST JUMPDEST DUP2 CALLDATALOAD PUSH2 0xC2E DUP5 DUP3 PUSH1 0x20 DUP7 ADD PUSH2 0xBC7 JUMP JUMPDEST SWAP2 POP POP SWAP3 SWAP2 POP POP JUMP JUMPDEST PUSH1 0x0 PUSH1 0xFF DUP3 AND SWAP1 POP SWAP2 SWAP1 POP JUMP JUMPDEST PUSH2 0xC4D DUP2 PUSH2 0xC37 JUMP JUMPDEST DUP2 EQ PUSH2 0xC58 JUMPI PUSH1 0x0 DUP1 REVERT JUMPDEST POP JUMP JUMPDEST PUSH1 0x0 DUP2 CALLDATALOAD SWAP1 POP PUSH2 0xC6A DUP2 PUSH2 0xC44 JUMP JUMPDEST SWAP3 SWAP2 POP POP JUMP JUMPDEST PUSH1 0x0 DUP1 PUSH1 0x0 PUSH1 0x60 DUP5 DUP7 SUB SLT ISZERO PUSH2 0xC89 JUMPI PUSH2 0xC88 PUSH2 0x676 JUMP JUMPDEST JUMPDEST PUSH1 0x0 DUP5 ADD CALLDATALOAD PUSH8 0xFFFFFFFFFFFFFFFF DUP2 GT ISZERO PUSH2 0xCA7 JUMPI PUSH2 0xCA6 PUSH2 0x67B JUMP JUMPDEST JUMPDEST PUSH2 0xCB3 DUP7 DUP3 DUP8 ADD PUSH2 0xC09 JUMP JUMPDEST SWAP4 POP POP PUSH1 0x20 DUP5 ADD CALLDATALOAD PUSH8 0xFFFFFFFFFFFFFFFF DUP2 GT ISZERO PUSH2 0xCD4 JUMPI PUSH2 0xCD3 PUSH2 0x67B JUMP JUMPDEST JUMPDEST PUSH2 0xCE0 DUP7 DUP3 DUP8 ADD PUSH2 0xC09 JUMP JUMPDEST SWAP3 POP POP PUSH1 0x40 PUSH2 0xCF1 DUP7 DUP3 DUP8 ADD PUSH2 0xC5B JUMP JUMPDEST SWAP2 POP POP SWAP3 POP SWAP3 POP SWAP3 JUMP JUMPDEST PUSH1 0x0 PUSH1 0x2 SWAP1 POP SWAP2 SWAP1 POP JUMP JUMPDEST PUSH1 0x0 DUP2 SWAP1 POP SWAP3 SWAP2 POP POP JUMP JUMPDEST PUSH1 0x0 DUP2 SWAP1 POP SWAP2 SWAP1 POP JUMP JUMPDEST PUSH2 0xD24 DUP2 PUSH2 0x73C JUMP JUMPDEST DUP3 MSTORE POP POP JUMP JUMPDEST PUSH1 0x0 PUSH2 0xD36 DUP4 DUP4 PUSH2 0xD1B JUMP JUMPDEST PUSH1 0x20 DUP4 ADD SWAP1 POP SWAP3 SWAP2 POP POP JUMP JUMPDEST PUSH1 0x0 PUSH1 0x20 DUP3 ADD SWAP1 POP SWAP2 SWAP1 POP JUMP JUMPDEST PUSH2 0xD58 DUP2 PUSH2 0xCFB JUMP JUMPDEST PUSH2 0xD62 DUP2 DUP5 PUSH2 0xD06 JUMP JUMPDEST SWAP3 POP PUSH2 0xD6D DUP3 PUSH2 0xD11 JUMP JUMPDEST DUP1 PUSH1 0x0 JUMPDEST DUP4 DUP2 LT ISZERO PUSH2 0xD9E JUMPI DUP2 MLOAD PUSH2 0xD85 DUP8 DUP3 PUSH2 0xD2A JUMP JUMPDEST SWAP7 POP PUSH2 0xD90 DUP4 PUSH2 0xD42 JUMP JUMPDEST SWAP3 POP POP PUSH1 0x1 DUP2 ADD SWAP1 POP PUSH2 0xD71 JUMP JUMPDEST POP POP POP POP POP POP JUMP JUMPDEST PUSH1 0x0 PUSH1 0x2 SWAP1 POP SWAP2 SWAP1 POP JUMP JUMPDEST PUSH1 0x0 DUP2 SWAP1 POP SWAP3 SWAP2 POP POP JUMP JUMPDEST PUSH1 0x0 DUP2 SWAP1 POP SWAP2 SWAP1 POP JUMP JUMPDEST PUSH1 0x0 DUP2 SWAP1 POP SWAP3 SWAP2 POP POP JUMP JUMPDEST PUSH2 0xDDA DUP2 PUSH2 0xCFB JUMP JUMPDEST PUSH2 0xDE4 DUP2 DUP5 PUSH2 0xDC6 JUMP JUMPDEST SWAP3 POP PUSH2 0xDEF DUP3 PUSH2 0xD11 JUMP JUMPDEST DUP1 PUSH1 0x0 JUMPDEST DUP4 DUP2 LT ISZERO PUSH2 0xE20 JUMPI DUP2 MLOAD PUSH2 0xE07 DUP8 DUP3 PUSH2 0xD2A JUMP JUMPDEST SWAP7 POP PUSH2 0xE12 DUP4 PUSH2 0xD42 JUMP JUMPDEST SWAP3 POP POP PUSH1 0x1 DUP2 ADD SWAP1 POP PUSH2 0xDF3 JUMP JUMPDEST POP POP POP POP POP POP JUMP JUMPDEST PUSH1 0x0 PUSH2 0xE34 DUP4 DUP4 PUSH2 0xDD1 JUMP JUMPDEST PUSH1 0x40 DUP4 ADD SWAP1 POP SWAP3 SWAP2 POP POP JUMP JUMPDEST PUSH1 0x0 PUSH1 0x20 DUP3 ADD SWAP1 POP SWAP2 SWAP1 POP JUMP JUMPDEST PUSH2 0xE56 DUP2 PUSH2 0xDA6 JUMP JUMPDEST PUSH2 0xE60 DUP2 DUP5 PUSH2 0xDB1 JUMP JUMPDEST SWAP3 POP PUSH2 0xE6B DUP3 PUSH2 0xDBC JUMP JUMPDEST DUP1 PUSH1 0x0 JUMPDEST DUP4 DUP2 LT ISZERO PUSH2 0xE9C JUMPI DUP2 MLOAD PUSH2 0xE83 DUP8 DUP3 PUSH2 0xE28 JUMP JUMPDEST SWAP7 POP PUSH2 0xE8E DUP4 PUSH2 0xE40 JUMP JUMPDEST SWAP3 POP POP PUSH1 0x1 DUP2 ADD SWAP1 POP PUSH2 0xE6F JUMP JUMPDEST POP POP POP POP POP POP JUMP JUMPDEST PUSH1 0x0 PUSH1 0x1 SWAP1 POP SWAP2 SWAP1 POP JUMP JUMPDEST PUSH1 0x0 DUP2 SWAP1 POP SWAP3 SWAP2 POP POP JUMP JUMPDEST PUSH1 0x0 DUP2 SWAP1 POP SWAP2 SWAP1 POP JUMP JUMPDEST PUSH1 0x0 PUSH1 0x20 DUP3 ADD SWAP1 POP SWAP2 SWAP1 POP JUMP JUMPDEST PUSH2 0xEDA DUP2 PUSH2 0xEA4 JUMP JUMPDEST PUSH2 0xEE4 DUP2 DUP5 PUSH2 0xEAF JUMP JUMPDEST SWAP3 POP PUSH2 0xEEF DUP3 PUSH2 0xEBA JUMP JUMPDEST DUP1 PUSH1 0x0 JUMPDEST DUP4 DUP2 LT ISZERO PUSH2 0xF20 JUMPI DUP2 MLOAD PUSH2 0xF07 DUP8 DUP3 PUSH2 0xD2A JUMP JUMPDEST SWAP7 POP PUSH2 0xF12 DUP4 PUSH2 0xEC4 JUMP JUMPDEST SWAP3 POP POP PUSH1 0x1 DUP2 ADD SWAP1 POP PUSH2 0xEF3 JUMP JUMPDEST POP POP POP POP POP POP JUMP JUMPDEST PUSH1 0x0 PUSH2 0x120 DUP3 ADD SWAP1 POP PUSH2 0xF3E PUSH1 0x0 DUP4 ADD DUP8 PUSH2 0xD4F JUMP JUMPDEST PUSH2 0xF4B PUSH1 0x40 DUP4 ADD DUP7 PUSH2 0xE4D JUMP JUMPDEST PUSH2 0xF58 PUSH1 0xC0 DUP4 ADD DUP6 PUSH2 0xD4F JUMP JUMPDEST PUSH2 0xF66 PUSH2 0x100 DUP4 ADD DUP5 PUSH2 0xED1 JUMP JUMPDEST SWAP6 SWAP5 POP POP POP POP POP JUMP JUMPDEST PUSH2 0xF78 DUP2 PUSH2 0x9C8 JUMP JUMPDEST DUP2 EQ PUSH2 0xF83 JUMPI PUSH1 0x0 DUP1 REVERT JUMPDEST POP JUMP JUMPDEST PUSH1 0x0 DUP2 MLOAD SWAP1 POP PUSH2 0xF95 DUP2 PUSH2 0xF6F JUMP JUMPDEST SWAP3 SWAP2 POP POP JUMP JUMPDEST PUSH1 0x0 PUSH1 0x20 DUP3 DUP5 SUB SLT ISZERO PUSH2 0xFB1 JUMPI PUSH2 0xFB0 PUSH2 0x676 JUMP JUMPDEST JUMPDEST PUSH1 0x0 PUSH2 0xFBF DUP5 DUP3 DUP6 ADD PUSH2 0xF86 JUMP JUMPDEST SWAP2 POP POP SWAP3 SWAP2 POP POP JUMP INVALID LOG2 PUSH5 0x6970667358 0x22 SLT KECCAK256 EXTCODEHASH DUP11 SWAP3 INVALID 0xD2 0xD0 0xCD SWAP1 0xE5 0xE0 EXP SWAP8 PUSH31 0x4CDCEC3E8A05405D284E0B885D1DBA6730A33964736F6C6343000818003300 "},"methodIdentifiers":{"deployRBT(string,string,uint8)":"dedae14d","getReversePeriod()":"b02a67c3","isRBTtoken(address)":"b61db181","verifyProof(uint256[2],uint256[2][2],uint256[2],uint256[1])":"43753b4d","verifySahayak(uint256[2],uint256[2][2],uint256[2],uint256[1])":"1f441cf5"}}}}}