{"contracts/rollback-oracle/RBTOracle.sol":{"RBTOracle":{"abi":[{"inputs":[],"stateMutability":"nonpayable","type":"constructor"},{"anonymous":false,"inputs":[{"indexed":true,"internalType":"address","name":"sender","type":"address"},{"indexed":false,"internalType":"uint256","name":"commitment","type":"uint256"}],"name":"ProofVerified","type":"event"},{"anonymous":false,"inputs":[{"indexed":true,"internalType":"address","name":"addr","type":"address"}],"name":"RBTDeployed","type":"event"},{"anonymous":false,"inputs":[{"indexed":true,"internalType":"address","name":"addr","type":"address"}],"name":"SahayakRegistered","type":"event"},{"anonymous":false,"inputs":[{"indexed":true,"internalType":"address","name":"addr","type":"address"}],"name":"SahayakUnregistered","type":"event"},{"inputs":[{"internalType":"string","name":"name_","type":"string"},{"internalType":"string","name":"symbol_","type":"string"},{"internalType":"uint8","name":"decimals_","type":"uint8"}],"name":"deployRBT","outputs":[],"stateMutability":"nonpayable","type":"function"},{"inputs":[],"name":"getReversePeriod","outputs":[{"internalType":"uint256","name":"","type":"uint256"}],"stateMutability":"pure","type":"function"},{"inputs":[{"internalType":"address","name":"","type":"address"}],"name":"isRBTtoken","outputs":[{"internalType":"bool","name":"","type":"bool"}],"stateMutability":"view","type":"function"},{"inputs":[{"internalType":"uint256[2]","name":"a","type":"uint256[2]"},{"internalType":"uint256[2][2]","name":"b","type":"uint256[2][2]"},{"internalType":"uint256[2]","name":"c","type":"uint256[2]"},{"internalType":"uint256[1]","name":"input","type":"uint256[1]"}],"name":"submitProof","outputs":[{"internalType":"bool","name":"","type":"bool"}],"stateMutability":"nonpayable","type":"function"},{"inputs":[{"internalType":"uint256[2]","name":"_pA","type":"uint256[2]"},{"internalType":"uint256[2][2]","name":"_pB","type":"uint256[2][2]"},{"internalType":"uint256[2]","name":"_pC","type":"uint256[2]"},{"internalType":"uint256[1]","name":"_pubSignals","type":"uint256[1]"}],"name":"verifyProof","outputs":[{"internalType":"bool","name":"","type":"bool"}],"stateMutability":"view","type":"function"},{"inputs":[{"internalType":"uint256[2]","name":"a","type":"uint256[2]"},{"internalType":"uint256[2][2]","name":"b","type":"uint256[2][2]"},{"internalType":"uint256[2]","name":"c","type":"uint256[2]"},{"internalType":"uint256[1]","name":"input","type":"uint256[1]"}],"name":"verifySahayak","outputs":[{"internalType":"bool","name":"","type":"bool"}],"stateMutability":"view","type":"function"}],"evm":{"bytecode":{"linkReferences":{},"object":"608060405234801561001057600080fd5b50610ce0806100206000396000f3fe608060405234801561001057600080fd5b50600436106100625760003560e01c80631f441cf51461006757806343753b4d14610097578063b02a67c3146100c7578063b61db181146100e5578063d7a6401b14610115578063dedae14d14610145575b600080fd5b610081600480360381019061007c919061069a565b610161565b60405161008e919061071e565b60405180910390f35b6100b160048036038101906100ac919061069a565b610179565b6040516100be919061071e565b60405180910390f35b6100cf6105e2565b6040516100dc9190610752565b60405180910390f35b6100ff60048036038101906100fa91906107cb565b6105ec565b60405161010c919061071e565b60405180910390f35b61012f600480360381019061012a9190610ac8565b61060c565b60405161013c919061071e565b60405180910390f35b61015f600480360381019061015a9190610c1f565b610616565b005b600061016f85858585610179565b9050949350505050565b60006105a6565b7f30644e72e131a029b85045b68181585d2833e84879b9709143e1f593f000000181106101b1576000805260206000f35b50565b600060405183815284602082015285604082015260408160608360076107d05a03fa9150816101e7576000805260206000f35b825160408201526020830151606082015260408360808360066107d05a03fa915081610217576000805260206000f35b505050505050565b600060808601600087017f203275d9bb0532314a6bd2f7390bbb8767002e9fc798f94bc19d97c4df0a0aa481527f0b498c954007fbb8e71cd6d3abe801e512380f34fce3bf8b72dc34fe795980e160208201526102c260008801357f05c5e54417a6d5c5f16dea80f7f871fdf3bd88cf2b75321201a2e6ac1f2b97ed7f0fd5d6fe6427507821b8aec3a425a78bb2d1d83c7aa0fd306c1cbb5bf9e27d7c846101b4565b833582527f30644e72e131a029b85045b68181585d97816a916871ca8d3c208c16d87cfd4760208501357f30644e72e131a029b85045b68181585d97816a916871ca8d3c208c16d87cfd4703066020830152843560408301526020850135606083015260408501356080830152606085013560a08301527f2464dea2e438c136c247dd908b69541420ca238b62d0dd06d00298c7b529da2060c08301527f1be0d2b24775e37a2dff805a03a77d92d9c8f8327562c5563f1eae16f7da6fd160e08301527f2a31c7b3ba5b544c188249c97fd87770ae4fd12a8978b52052c96b91db62421d6101008301527f2f8297df2b2c1403d62c6e11ddb05e1d1e2a0761b497f3349f0294fa4965f21b6101208301527f13bc80607c6883b15e73af6be5d7eca9fd73e09a9771a754f76a059cac8419776101408301527f1526a5b31162468928dbe4b01ca3a40f42f41f6eaf92bc5dcbd373622fa87aac610160830152600088015161018083015260206000018801516101a08301527f1800deef121f1e76426a00665e5c4479674322d4f75edadd46debd5cd992f6ed6101c08301527f198e9393920d483a7260bfb731fb5d25f1aa493335a9e71297e485b7aef312c26101e08301527f12c85ea5db8c6deb4aab71808dcb408fe3d1e7690c43d37b4ce6cc0166fa7daa6102008301527f090689d0585ff075ec9e99ad690c3395bc4b313370b38ef355acdadcd122975b610220830152853561024083015260208601356102608301527f1800deef121f1e76426a00665e5c4479674322d4f75edadd46debd5cd992f6ed6102808301527f198e9393920d483a7260bfb731fb5d25f1aa493335a9e71297e485b7aef312c26102a08301527f12c85ea5db8c6deb4aab71808dcb408fe3d1e7690c43d37b4ce6cc0166fa7daa6102c08301527f090689d0585ff075ec9e99ad690c3395bc4b313370b38ef355acdadcd122975b6102e08301526020826103008460086107d05a03fa82518116935050505095945050505050565b60405161038081016040526105be6000840135610180565b6105cb6020840135610180565b6105d8818486888a61021f565b8060005260206000f35b6000610a8c905090565b60006020528060005260406000206000915054906101000a900460ff1681565b6000949350505050565b505050565b6000604051905090565b600080fd5b600080fd5b600080fd5b6000819050826020600202820111156106505761064f61062f565b5b92915050565b6000819050826040600202820111156106725761067161062f565b5b92915050565b6000819050826020600102820111156106945761069361062f565b5b92915050565b60008060008061012085870312156106b5576106b4610625565b5b60006106c387828801610634565b94505060406106d487828801610656565b93505060c06106e587828801610634565b9250506101006106f787828801610678565b91505092959194509250565b60008115159050919050565b61071881610703565b82525050565b6000602082019050610733600083018461070f565b92915050565b6000819050919050565b61074c81610739565b82525050565b60006020820190506107676000830184610743565b92915050565b600073ffffffffffffffffffffffffffffffffffffffff82169050919050565b60006107988261076d565b9050919050565b6107a88161078d565b81146107b357600080fd5b50565b6000813590506107c58161079f565b92915050565b6000602082840312156107e1576107e0610625565b5b60006107ef848285016107b6565b91505092915050565b600080fd5b6000601f19601f8301169050919050565b7f4e487b7100000000000000000000000000000000000000000000000000000000600052604160045260246000fd5b610846826107fd565b810181811067ffffffffffffffff821117156108655761086461080e565b5b80604052505050565b600061087861061b565b9050610884828261083d565b919050565b600067ffffffffffffffff8211156108a4576108a361080e565b5b602082029050919050565b6108b881610739565b81146108c357600080fd5b50565b6000813590506108d5816108af565b92915050565b60006108ee6108e984610889565b61086e565b905080602084028301858111156109085761090761062f565b5b835b81811015610931578061091d88826108c6565b84526020840193505060208101905061090a565b5050509392505050565b600082601f8301126109505761094f6107f8565b5b600261095d8482856108db565b91505092915050565b600067ffffffffffffffff8211156109815761098061080e565b5b602082029050919050565b600061099f61099a84610966565b61086e565b905080604084028301858111156109b9576109b861062f565b5b835b818110156109e257806109ce888261093b565b8452602084019350506040810190506109bb565b5050509392505050565b600082601f830112610a0157610a006107f8565b5b6002610a0e84828561098c565b91505092915050565b600067ffffffffffffffff821115610a3257610a3161080e565b5b602082029050919050565b6000610a50610a4b84610a17565b61086e565b90508060208402830185811115610a6a57610a6961062f565b5b835b81811015610a935780610a7f88826108c6565b845260208401935050602081019050610a6c565b5050509392505050565b600082601f830112610ab257610ab16107f8565b5b6001610abf848285610a3d565b91505092915050565b6000806000806101208587031215610ae357610ae2610625565b5b6000610af18782880161093b565b9450506040610b02878288016109ec565b93505060c0610b138782880161093b565b925050610100610b2587828801610a9d565b91505092959194509250565b600080fd5b600067ffffffffffffffff821115610b5157610b5061080e565b5b610b5a826107fd565b9050602081019050919050565b82818337600083830152505050565b6000610b89610b8484610b36565b61086e565b905082815260208101848484011115610ba557610ba4610b31565b5b610bb0848285610b67565b509392505050565b600082601f830112610bcd57610bcc6107f8565b5b8135610bdd848260208601610b76565b91505092915050565b600060ff82169050919050565b610bfc81610be6565b8114610c0757600080fd5b50565b600081359050610c1981610bf3565b92915050565b600080600060608486031215610c3857610c37610625565b5b600084013567ffffffffffffffff811115610c5657610c5561062a565b5b610c6286828701610bb8565b935050602084013567ffffffffffffffff811115610c8357610c8261062a565b5b610c8f86828701610bb8565b9250506040610ca086828701610c0a565b915050925092509256fea26469706673582212202ed2177f70dd9ed6f0c7a0ba430420a89b7a4d7057f69d28d497a97eb992849d64736f6c63430008180033","opcodes":"PUSH1 0x80 PUSH1 0x40 MSTORE CALLVALUE DUP1 ISZERO PUSH2 0x10 JUMPI PUSH1 0x0 DUP1 REVERT JUMPDEST POP PUSH2 0xCE0 DUP1 PUSH2 0x20 PUSH1 0x0 CODECOPY PUSH1 0x0 RETURN INVALID PUSH1 0x80 PUSH1 0x40 MSTORE CALLVALUE DUP1 ISZERO PUSH2 0x10 JUMPI PUSH1 0x0 DUP1 REVERT JUMPDEST POP PUSH1 0x4 CALLDATASIZE LT PUSH2 0x62 JUMPI PUSH1 0x0 CALLDATALOAD PUSH1 0xE0 SHR DUP1 PUSH4 0x1F441CF5 EQ PUSH2 0x67 JUMPI DUP1 PUSH4 0x43753B4D EQ PUSH2 0x97 JUMPI DUP1 PUSH4 0xB02A67C3 EQ PUSH2 0xC7 JUMPI DUP1 PUSH4 0xB61DB181 EQ PUSH2 0xE5 JUMPI DUP1 PUSH4 0xD7A6401B EQ PUSH2 0x115 JUMPI DUP1 PUSH4 0xDEDAE14D EQ PUSH2 0x145 JUMPI JUMPDEST PUSH1 0x0 DUP1 REVERT JUMPDEST PUSH2 0x81 PUSH1 0x4 DUP1 CALLDATASIZE SUB DUP2 ADD SWAP1 PUSH2 0x7C SWAP2 SWAP1 PUSH2 0x69A JUMP JUMPDEST PUSH2 0x161 JUMP JUMPDEST PUSH1 0x40 MLOAD PUSH2 0x8E SWAP2 SWAP1 PUSH2 0x71E JUMP JUMPDEST PUSH1 0x40 MLOAD DUP1 SWAP2 SUB SWAP1 RETURN JUMPDEST PUSH2 0xB1 PUSH1 0x4 DUP1 CALLDATASIZE SUB DUP2 ADD SWAP1 PUSH2 0xAC SWAP2 SWAP1 PUSH2 0x69A JUMP JUMPDEST PUSH2 0x179 JUMP JUMPDEST PUSH1 0x40 MLOAD PUSH2 0xBE SWAP2 SWAP1 PUSH2 0x71E JUMP JUMPDEST PUSH1 0x40 MLOAD DUP1 SWAP2 SUB SWAP1 RETURN JUMPDEST PUSH2 0xCF PUSH2 0x5E2 JUMP JUMPDEST PUSH1 0x40 MLOAD PUSH2 0xDC SWAP2 SWAP1 PUSH2 0x752 JUMP JUMPDEST PUSH1 0x40 MLOAD DUP1 SWAP2 SUB SWAP1 RETURN JUMPDEST PUSH2 0xFF PUSH1 0x4 DUP1 CALLDATASIZE SUB DUP2 ADD SWAP1 PUSH2 0xFA SWAP2 SWAP1 PUSH2 0x7CB JUMP JUMPDEST PUSH2 0x5EC JUMP JUMPDEST PUSH1 0x40 MLOAD PUSH2 0x10C SWAP2 SWAP1 PUSH2 0x71E JUMP JUMPDEST PUSH1 0x40 MLOAD DUP1 SWAP2 SUB SWAP1 RETURN JUMPDEST PUSH2 0x12F PUSH1 0x4 DUP1 CALLDATASIZE SUB DUP2 ADD SWAP1 PUSH2 0x12A SWAP2 SWAP1 PUSH2 0xAC8 JUMP JUMPDEST PUSH2 0x60C JUMP JUMPDEST PUSH1 0x40 MLOAD PUSH2 0x13C SWAP2 SWAP1 PUSH2 0x71E JUMP JUMPDEST PUSH1 0x40 MLOAD DUP1 SWAP2 SUB SWAP1 RETURN JUMPDEST PUSH2 0x15F PUSH1 0x4 DUP1 CALLDATASIZE SUB DUP2 ADD SWAP1 PUSH2 0x15A SWAP2 SWAP1 PUSH2 0xC1F JUMP JUMPDEST PUSH2 0x616 JUMP JUMPDEST STOP JUMPDEST PUSH1 0x0 PUSH2 0x16F DUP6 DUP6 DUP6 DUP6 PUSH2 0x179 JUMP JUMPDEST SWAP1 POP SWAP5 SWAP4 POP POP POP POP JUMP JUMPDEST PUSH1 0x0 PUSH2 0x5A6 JUMP JUMPDEST PUSH32 0x30644E72E131A029B85045B68181585D2833E84879B9709143E1F593F0000001 DUP2 LT PUSH2 0x1B1 JUMPI PUSH1 0x0 DUP1 MSTORE PUSH1 0x20 PUSH1 0x0 RETURN JUMPDEST POP JUMP JUMPDEST PUSH1 0x0 PUSH1 0x40 MLOAD DUP4 DUP2 MSTORE DUP5 PUSH1 0x20 DUP3 ADD MSTORE DUP6 PUSH1 0x40 DUP3 ADD MSTORE PUSH1 0x40 DUP2 PUSH1 0x60 DUP4 PUSH1 0x7 PUSH2 0x7D0 GAS SUB STATICCALL SWAP2 POP DUP2 PUSH2 0x1E7 JUMPI PUSH1 0x0 DUP1 MSTORE PUSH1 0x20 PUSH1 0x0 RETURN JUMPDEST DUP3 MLOAD PUSH1 0x40 DUP3 ADD MSTORE PUSH1 0x20 DUP4 ADD MLOAD PUSH1 0x60 DUP3 ADD MSTORE PUSH1 0x40 DUP4 PUSH1 0x80 DUP4 PUSH1 0x6 PUSH2 0x7D0 GAS SUB STATICCALL SWAP2 POP DUP2 PUSH2 0x217 JUMPI PUSH1 0x0 DUP1 MSTORE PUSH1 0x20 PUSH1 0x0 RETURN JUMPDEST POP POP POP POP POP POP JUMP JUMPDEST PUSH1 0x0 PUSH1 0x80 DUP7 ADD PUSH1 0x0 DUP8 ADD PUSH32 0x203275D9BB0532314A6BD2F7390BBB8767002E9FC798F94BC19D97C4DF0A0AA4 DUP2 MSTORE PUSH32 0xB498C954007FBB8E71CD6D3ABE801E512380F34FCE3BF8B72DC34FE795980E1 PUSH1 0x20 DUP3 ADD MSTORE PUSH2 0x2C2 PUSH1 0x0 DUP9 ADD CALLDATALOAD PUSH32 0x5C5E54417A6D5C5F16DEA80F7F871FDF3BD88CF2B75321201A2E6AC1F2B97ED PUSH32 0xFD5D6FE6427507821B8AEC3A425A78BB2D1D83C7AA0FD306C1CBB5BF9E27D7C DUP5 PUSH2 0x1B4 JUMP JUMPDEST DUP4 CALLDATALOAD DUP3 MSTORE PUSH32 0x30644E72E131A029B85045B68181585D97816A916871CA8D3C208C16D87CFD47 PUSH1 0x20 DUP6 ADD CALLDATALOAD PUSH32 0x30644E72E131A029B85045B68181585D97816A916871CA8D3C208C16D87CFD47 SUB MOD PUSH1 0x20 DUP4 ADD MSTORE DUP5 CALLDATALOAD PUSH1 0x40 DUP4 ADD MSTORE PUSH1 0x20 DUP6 ADD CALLDATALOAD PUSH1 0x60 DUP4 ADD MSTORE PUSH1 0x40 DUP6 ADD CALLDATALOAD PUSH1 0x80 DUP4 ADD MSTORE PUSH1 0x60 DUP6 ADD CALLDATALOAD PUSH1 0xA0 DUP4 ADD MSTORE PUSH32 0x2464DEA2E438C136C247DD908B69541420CA238B62D0DD06D00298C7B529DA20 PUSH1 0xC0 DUP4 ADD MSTORE PUSH32 0x1BE0D2B24775E37A2DFF805A03A77D92D9C8F8327562C5563F1EAE16F7DA6FD1 PUSH1 0xE0 DUP4 ADD MSTORE PUSH32 0x2A31C7B3BA5B544C188249C97FD87770AE4FD12A8978B52052C96B91DB62421D PUSH2 0x100 DUP4 ADD MSTORE PUSH32 0x2F8297DF2B2C1403D62C6E11DDB05E1D1E2A0761B497F3349F0294FA4965F21B PUSH2 0x120 DUP4 ADD MSTORE PUSH32 0x13BC80607C6883B15E73AF6BE5D7ECA9FD73E09A9771A754F76A059CAC841977 PUSH2 0x140 DUP4 ADD MSTORE PUSH32 0x1526A5B31162468928DBE4B01CA3A40F42F41F6EAF92BC5DCBD373622FA87AAC PUSH2 0x160 DUP4 ADD MSTORE PUSH1 0x0 DUP9 ADD MLOAD PUSH2 0x180 DUP4 ADD MSTORE PUSH1 0x20 PUSH1 0x0 ADD DUP9 ADD MLOAD PUSH2 0x1A0 DUP4 ADD MSTORE PUSH32 0x1800DEEF121F1E76426A00665E5C4479674322D4F75EDADD46DEBD5CD992F6ED PUSH2 0x1C0 DUP4 ADD MSTORE PUSH32 0x198E9393920D483A7260BFB731FB5D25F1AA493335A9E71297E485B7AEF312C2 PUSH2 0x1E0 DUP4 ADD MSTORE PUSH32 0x12C85EA5DB8C6DEB4AAB71808DCB408FE3D1E7690C43D37B4CE6CC0166FA7DAA PUSH2 0x200 DUP4 ADD MSTORE PUSH32 0x90689D0585FF075EC9E99AD690C3395BC4B313370B38EF355ACDADCD122975B PUSH2 0x220 DUP4 ADD MSTORE DUP6 CALLDATALOAD PUSH2 0x240 DUP4 ADD MSTORE PUSH1 0x20 DUP7 ADD CALLDATALOAD PUSH2 0x260 DUP4 ADD MSTORE PUSH32 0x1800DEEF121F1E76426A00665E5C4479674322D4F75EDADD46DEBD5CD992F6ED PUSH2 0x280 DUP4 ADD MSTORE PUSH32 0x198E9393920D483A7260BFB731FB5D25F1AA493335A9E71297E485B7AEF312C2 PUSH2 0x2A0 DUP4 ADD MSTORE PUSH32 0x12C85EA5DB8C6DEB4AAB71808DCB408FE3D1E7690C43D37B4CE6CC0166FA7DAA PUSH2 0x2C0 DUP4 ADD MSTORE PUSH32 0x90689D0585FF075EC9E99AD690C3395BC4B313370B38EF355ACDADCD122975B PUSH2 0x2E0 DUP4 ADD MSTORE PUSH1 0x20 DUP3 PUSH2 0x300 DUP5 PUSH1 0x8 PUSH2 0x7D0 GAS SUB STATICCALL DUP3 MLOAD DUP2 AND SWAP4 POP POP POP POP SWAP6 SWAP5 POP POP POP POP POP JUMP JUMPDEST PUSH1 0x40 MLOAD PUSH2 0x380 DUP2 ADD PUSH1 0x40 MSTORE PUSH2 0x5BE PUSH1 0x0 DUP5 ADD CALLDATALOAD PUSH2 0x180 JUMP JUMPDEST PUSH2 0x5CB PUSH1 0x20 DUP5 ADD CALLDATALOAD PUSH2 0x180 JUMP JUMPDEST PUSH2 0x5D8 DUP2 DUP5 DUP7 DUP9 DUP11 PUSH2 0x21F JUMP JUMPDEST DUP1 PUSH1 0x0 MSTORE PUSH1 0x20 PUSH1 0x0 RETURN JUMPDEST PUSH1 0x0 PUSH2 0xA8C SWAP1 POP SWAP1 JUMP JUMPDEST PUSH1 0x0 PUSH1 0x20 MSTORE DUP1 PUSH1 0x0 MSTORE PUSH1 0x40 PUSH1 0x0 KECCAK256 PUSH1 0x0 SWAP2 POP SLOAD SWAP1 PUSH2 0x100 EXP SWAP1 DIV PUSH1 0xFF AND DUP2 JUMP JUMPDEST PUSH1 0x0 SWAP5 SWAP4 POP POP POP POP JUMP JUMPDEST POP POP POP JUMP JUMPDEST PUSH1 0x0 PUSH1 0x40 MLOAD SWAP1 POP SWAP1 JUMP JUMPDEST PUSH1 0x0 DUP1 REVERT JUMPDEST PUSH1 0x0 DUP1 REVERT JUMPDEST PUSH1 0x0 DUP1 REVERT JUMPDEST PUSH1 0x0 DUP2 SWAP1 POP DUP3 PUSH1 0x20 PUSH1 0x2 MUL DUP3 ADD GT ISZERO PUSH2 0x650 JUMPI PUSH2 0x64F PUSH2 0x62F JUMP JUMPDEST JUMPDEST SWAP3 SWAP2 POP POP JUMP JUMPDEST PUSH1 0x0 DUP2 SWAP1 POP DUP3 PUSH1 0x40 PUSH1 0x2 MUL DUP3 ADD GT ISZERO PUSH2 0x672 JUMPI PUSH2 0x671 PUSH2 0x62F JUMP JUMPDEST JUMPDEST SWAP3 SWAP2 POP POP JUMP JUMPDEST PUSH1 0x0 DUP2 SWAP1 POP DUP3 PUSH1 0x20 PUSH1 0x1 MUL DUP3 ADD GT ISZERO PUSH2 0x694 JUMPI PUSH2 0x693 PUSH2 0x62F JUMP JUMPDEST JUMPDEST SWAP3 SWAP2 POP POP JUMP JUMPDEST PUSH1 0x0 DUP1 PUSH1 0x0 DUP1 PUSH2 0x120 DUP6 DUP8 SUB SLT ISZERO PUSH2 0x6B5 JUMPI PUSH2 0x6B4 PUSH2 0x625 JUMP JUMPDEST JUMPDEST PUSH1 0x0 PUSH2 0x6C3 DUP8 DUP3 DUP9 ADD PUSH2 0x634 JUMP JUMPDEST SWAP5 POP POP PUSH1 0x40 PUSH2 0x6D4 DUP8 DUP3 DUP9 ADD PUSH2 0x656 JUMP JUMPDEST SWAP4 POP POP PUSH1 0xC0 PUSH2 0x6E5 DUP8 DUP3 DUP9 ADD PUSH2 0x634 JUMP JUMPDEST SWAP3 POP POP PUSH2 0x100 PUSH2 0x6F7 DUP8 DUP3 DUP9 ADD PUSH2 0x678 JUMP JUMPDEST SWAP2 POP POP SWAP3 SWAP6 SWAP2 SWAP5 POP SWAP3 POP JUMP JUMPDEST PUSH1 0x0 DUP2 ISZERO ISZERO SWAP1 POP SWAP2 SWAP1 POP JUMP JUMPDEST PUSH2 0x718 DUP2 PUSH2 0x703 JUMP JUMPDEST DUP3 MSTORE POP POP JUMP JUMPDEST PUSH1 0x0 PUSH1 0x20 DUP3 ADD SWAP1 POP PUSH2 0x733 PUSH1 0x0 DUP4 ADD DUP5 PUSH2 0x70F JUMP JUMPDEST SWAP3 SWAP2 POP POP JUMP JUMPDEST PUSH1 0x0 DUP2 SWAP1 POP SWAP2 SWAP1 POP JUMP JUMPDEST PUSH2 0x74C DUP2 PUSH2 0x739 JUMP JUMPDEST DUP3 MSTORE POP POP JUMP JUMPDEST PUSH1 0x0 PUSH1 0x20 DUP3 ADD SWAP1 POP PUSH2 0x767 PUSH1 0x0 DUP4 ADD DUP5 PUSH2 0x743 JUMP JUMPDEST SWAP3 SWAP2 POP POP JUMP JUMPDEST PUSH1 0x0 PUSH20 0xFFFFFFFFFFFFFFFFFFFFFFFFFFFFFFFFFFFFFFFF DUP3 AND SWAP1 POP SWAP2 SWAP1 POP JUMP JUMPDEST PUSH1 0x0 PUSH2 0x798 DUP3 PUSH2 0x76D JUMP JUMPDEST SWAP1 POP SWAP2 SWAP1 POP JUMP JUMPDEST PUSH2 0x7A8 DUP2 PUSH2 0x78D JUMP JUMPDEST DUP2 EQ PUSH2 0x7B3 JUMPI PUSH1 0x0 DUP1 REVERT JUMPDEST POP JUMP JUMPDEST PUSH1 0x0 DUP2 CALLDATALOAD SWAP1 POP PUSH2 0x7C5 DUP2 PUSH2 0x79F JUMP JUMPDEST SWAP3 SWAP2 POP POP JUMP JUMPDEST PUSH1 0x0 PUSH1 0x20 DUP3 DUP5 SUB SLT ISZERO PUSH2 0x7E1 JUMPI PUSH2 0x7E0 PUSH2 0x625 JUMP JUMPDEST JUMPDEST PUSH1 0x0 PUSH2 0x7EF DUP5 DUP3 DUP6 ADD PUSH2 0x7B6 JUMP JUMPDEST SWAP2 POP POP SWAP3 SWAP2 POP POP JUMP JUMPDEST PUSH1 0x0 DUP1 REVERT JUMPDEST PUSH1 0x0 PUSH1 0x1F NOT PUSH1 0x1F DUP4 ADD AND SWAP1 POP SWAP2 SWAP1 POP JUMP JUMPDEST PUSH32 0x4E487B7100000000000000000000000000000000000000000000000000000000 PUSH1 0x0 MSTORE PUSH1 0x41 PUSH1 0x4 MSTORE PUSH1 0x24 PUSH1 0x0 REVERT JUMPDEST PUSH2 0x846 DUP3 PUSH2 0x7FD JUMP JUMPDEST DUP2 ADD DUP2 DUP2 LT PUSH8 0xFFFFFFFFFFFFFFFF DUP3 GT OR ISZERO PUSH2 0x865 JUMPI PUSH2 0x864 PUSH2 0x80E JUMP JUMPDEST JUMPDEST DUP1 PUSH1 0x40 MSTORE POP POP POP JUMP JUMPDEST PUSH1 0x0 PUSH2 0x878 PUSH2 0x61B JUMP JUMPDEST SWAP1 POP PUSH2 0x884 DUP3 DUP3 PUSH2 0x83D JUMP JUMPDEST SWAP2 SWAP1 POP JUMP JUMPDEST PUSH1 0x0 PUSH8 0xFFFFFFFFFFFFFFFF DUP3 GT ISZERO PUSH2 0x8A4 JUMPI PUSH2 0x8A3 PUSH2 0x80E JUMP JUMPDEST JUMPDEST PUSH1 0x20 DUP3 MUL SWAP1 POP SWAP2 SWAP1 POP JUMP JUMPDEST PUSH2 0x8B8 DUP2 PUSH2 0x739 JUMP JUMPDEST DUP2 EQ PUSH2 0x8C3 JUMPI PUSH1 0x0 DUP1 REVERT JUMPDEST POP JUMP JUMPDEST PUSH1 0x0 DUP2 CALLDATALOAD SWAP1 POP PUSH2 0x8D5 DUP2 PUSH2 0x8AF JUMP JUMPDEST SWAP3 SWAP2 POP POP JUMP JUMPDEST PUSH1 0x0 PUSH2 0x8EE PUSH2 0x8E9 DUP5 PUSH2 0x889 JUMP JUMPDEST PUSH2 0x86E JUMP JUMPDEST SWAP1 POP DUP1 PUSH1 0x20 DUP5 MUL DUP4 ADD DUP6 DUP2 GT ISZERO PUSH2 0x908 JUMPI PUSH2 0x907 PUSH2 0x62F JUMP JUMPDEST JUMPDEST DUP4 JUMPDEST DUP2 DUP2 LT ISZERO PUSH2 0x931 JUMPI DUP1 PUSH2 0x91D DUP9 DUP3 PUSH2 0x8C6 JUMP JUMPDEST DUP5 MSTORE PUSH1 0x20 DUP5 ADD SWAP4 POP POP PUSH1 0x20 DUP2 ADD SWAP1 POP PUSH2 0x90A JUMP JUMPDEST POP POP POP SWAP4 SWAP3 POP POP POP JUMP JUMPDEST PUSH1 0x0 DUP3 PUSH1 0x1F DUP4 ADD SLT PUSH2 0x950 JUMPI PUSH2 0x94F PUSH2 0x7F8 JUMP JUMPDEST JUMPDEST PUSH1 0x2 PUSH2 0x95D DUP5 DUP3 DUP6 PUSH2 0x8DB JUMP JUMPDEST SWAP2 POP POP SWAP3 SWAP2 POP POP JUMP JUMPDEST PUSH1 0x0 PUSH8 0xFFFFFFFFFFFFFFFF DUP3 GT ISZERO PUSH2 0x981 JUMPI PUSH2 0x980 PUSH2 0x80E JUMP JUMPDEST JUMPDEST PUSH1 0x20 DUP3 MUL SWAP1 POP SWAP2 SWAP1 POP JUMP JUMPDEST PUSH1 0x0 PUSH2 0x99F PUSH2 0x99A DUP5 PUSH2 0x966 JUMP JUMPDEST PUSH2 0x86E JUMP JUMPDEST SWAP1 POP DUP1 PUSH1 0x40 DUP5 MUL DUP4 ADD DUP6 DUP2 GT ISZERO PUSH2 0x9B9 JUMPI PUSH2 0x9B8 PUSH2 0x62F JUMP JUMPDEST JUMPDEST DUP4 JUMPDEST DUP2 DUP2 LT ISZERO PUSH2 0x9E2 JUMPI DUP1 PUSH2 0x9CE DUP9 DUP3 PUSH2 0x93B JUMP JUMPDEST DUP5 MSTORE PUSH1 0x20 DUP5 ADD SWAP4 POP POP PUSH1 0x40 DUP2 ADD SWAP1 POP PUSH2 0x9BB JUMP JUMPDEST POP POP POP SWAP4 SWAP3 POP POP POP JUMP JUMPDEST PUSH1 0x0 DUP3 PUSH1 0x1F DUP4 ADD SLT PUSH2 0xA01 JUMPI PUSH2 0xA00 PUSH2 0x7F8 JUMP JUMPDEST JUMPDEST PUSH1 0x2 PUSH2 0xA0E DUP5 DUP3 DUP6 PUSH2 0x98C JUMP JUMPDEST SWAP2 POP POP SWAP3 SWAP2 POP POP JUMP JUMPDEST PUSH1 0x0 PUSH8 0xFFFFFFFFFFFFFFFF DUP3 GT ISZERO PUSH2 0xA32 JUMPI PUSH2 0xA31 PUSH2 0x80E JUMP JUMPDEST JUMPDEST PUSH1 0x20 DUP3 MUL SWAP1 POP SWAP2 SWAP1 POP JUMP JUMPDEST PUSH1 0x0 PUSH2 0xA50 PUSH2 0xA4B DUP5 PUSH2 0xA17 JUMP JUMPDEST PUSH2 0x86E JUMP JUMPDEST SWAP1 POP DUP1 PUSH1 0x20 DUP5 MUL DUP4 ADD DUP6 DUP2 GT ISZERO PUSH2 0xA6A JUMPI PUSH2 0xA69 PUSH2 0x62F JUMP JUMPDEST JUMPDEST DUP4 JUMPDEST DUP2 DUP2 LT ISZERO PUSH2 0xA93 JUMPI DUP1 PUSH2 0xA7F DUP9 DUP3 PUSH2 0x8C6 JUMP JUMPDEST DUP5 MSTORE PUSH1 0x20 DUP5 ADD SWAP4 POP POP PUSH1 0x20 DUP2 ADD SWAP1 POP PUSH2 0xA6C JUMP JUMPDEST POP POP POP SWAP4 SWAP3 POP POP POP JUMP JUMPDEST PUSH1 0x0 DUP3 PUSH1 0x1F DUP4 ADD SLT PUSH2 0xAB2 JUMPI PUSH2 0xAB1 PUSH2 0x7F8 JUMP JUMPDEST JUMPDEST PUSH1 0x1 PUSH2 0xABF DUP5 DUP3 DUP6 PUSH2 0xA3D JUMP JUMPDEST SWAP2 POP POP SWAP3 SWAP2 POP POP JUMP JUMPDEST PUSH1 0x0 DUP1 PUSH1 0x0 DUP1 PUSH2 0x120 DUP6 DUP8 SUB SLT ISZERO PUSH2 0xAE3 JUMPI PUSH2 0xAE2 PUSH2 0x625 JUMP JUMPDEST JUMPDEST PUSH1 0x0 PUSH2 0xAF1 DUP8 DUP3 DUP9 ADD PUSH2 0x93B JUMP JUMPDEST SWAP5 POP POP PUSH1 0x40 PUSH2 0xB02 DUP8 DUP3 DUP9 ADD PUSH2 0x9EC JUMP JUMPDEST SWAP4 POP POP PUSH1 0xC0 PUSH2 0xB13 DUP8 DUP3 DUP9 ADD PUSH2 0x93B JUMP JUMPDEST SWAP3 POP POP PUSH2 0x100 PUSH2 0xB25 DUP8 DUP3 DUP9 ADD PUSH2 0xA9D JUMP JUMPDEST SWAP2 POP POP SWAP3 SWAP6 SWAP2 SWAP5 POP SWAP3 POP JUMP JUMPDEST PUSH1 0x0 DUP1 REVERT JUMPDEST PUSH1 0x0 PUSH8 0xFFFFFFFFFFFFFFFF DUP3 GT ISZERO PUSH2 0xB51 JUMPI PUSH2 0xB50 PUSH2 0x80E JUMP JUMPDEST JUMPDEST PUSH2 0xB5A DUP3 PUSH2 0x7FD JUMP JUMPDEST SWAP1 POP PUSH1 0x20 DUP2 ADD SWAP1 POP SWAP2 SWAP1 POP JUMP JUMPDEST DUP3 DUP2 DUP4 CALLDATACOPY PUSH1 0x0 DUP4 DUP4 ADD MSTORE POP POP POP JUMP JUMPDEST PUSH1 0x0 PUSH2 0xB89 PUSH2 0xB84 DUP5 PUSH2 0xB36 JUMP JUMPDEST PUSH2 0x86E JUMP JUMPDEST SWAP1 POP DUP3 DUP2 MSTORE PUSH1 0x20 DUP2 ADD DUP5 DUP5 DUP5 ADD GT ISZERO PUSH2 0xBA5 JUMPI PUSH2 0xBA4 PUSH2 0xB31 JUMP JUMPDEST JUMPDEST PUSH2 0xBB0 DUP5 DUP3 DUP6 PUSH2 0xB67 JUMP JUMPDEST POP SWAP4 SWAP3 POP POP POP JUMP JUMPDEST PUSH1 0x0 DUP3 PUSH1 0x1F DUP4 ADD SLT PUSH2 0xBCD JUMPI PUSH2 0xBCC PUSH2 0x7F8 JUMP JUMPDEST JUMPDEST DUP2 CALLDATALOAD PUSH2 0xBDD DUP5 DUP3 PUSH1 0x20 DUP7 ADD PUSH2 0xB76 JUMP JUMPDEST SWAP2 POP POP SWAP3 SWAP2 POP POP JUMP JUMPDEST PUSH1 0x0 PUSH1 0xFF DUP3 AND SWAP1 POP SWAP2 SWAP1 POP JUMP JUMPDEST PUSH2 0xBFC DUP2 PUSH2 0xBE6 JUMP JUMPDEST DUP2 EQ PUSH2 0xC07 JUMPI PUSH1 0x0 DUP1 REVERT JUMPDEST POP JUMP JUMPDEST PUSH1 0x0 DUP2 CALLDATALOAD SWAP1 POP PUSH2 0xC19 DUP2 PUSH2 0xBF3 JUMP JUMPDEST SWAP3 SWAP2 POP POP JUMP JUMPDEST PUSH1 0x0 DUP1 PUSH1 0x0 PUSH1 0x60 DUP5 DUP7 SUB SLT ISZERO PUSH2 0xC38 JUMPI PUSH2 0xC37 PUSH2 0x625 JUMP JUMPDEST JUMPDEST PUSH1 0x0 DUP5 ADD CALLDATALOAD PUSH8 0xFFFFFFFFFFFFFFFF DUP2 GT ISZERO PUSH2 0xC56 JUMPI PUSH2 0xC55 PUSH2 0x62A JUMP JUMPDEST JUMPDEST PUSH2 0xC62 DUP7 DUP3 DUP8 ADD PUSH2 0xBB8 JUMP JUMPDEST SWAP4 POP POP PUSH1 0x20 DUP5 ADD CALLDATALOAD PUSH8 0xFFFFFFFFFFFFFFFF DUP2 GT ISZERO PUSH2 0xC83 JUMPI PUSH2 0xC82 PUSH2 0x62A JUMP JUMPDEST JUMPDEST PUSH2 0xC8F DUP7 DUP3 DUP8 ADD PUSH2 0xBB8 JUMP JUMPDEST SWAP3 POP POP PUSH1 0x40 PUSH2 0xCA0 DUP7 DUP3 DUP8 ADD PUSH2 0xC0A JUMP JUMPDEST SWAP2 POP POP SWAP3 POP SWAP3 POP SWAP3 JUMP INVALID LOG2 PUSH5 0x6970667358 0x22 SLT KECCAK256 0x2E 0xD2 OR PUSH32 0x70DD9ED6F0C7A0BA430420A89B7A4D7057F69D28D497A97EB992849D64736F6C PUSH4 0x43000818 STOP CALLER "},"methodIdentifiers":{"deployRBT(string,string,uint8)":"dedae14d","getReversePeriod()":"b02a67c3","isRBTtoken(address)":"b61db181","submitProof(uint256[2],uint256[2][2],uint256[2],uint256[1])":"d7a6401b","verifyProof(uint256[2],uint256[2][2],uint256[2],uint256[1])":"43753b4d","verifySahayak(uint256[2],uint256[2][2],uint256[2],uint256[1])":"1f441cf5"}}}}}